:020000040800F2
:100000009006002001010008832000088B1D0008D5
:10001000812000081509000855280008000000008C
:100020000000000000000000000000009D23000808
:10003000170900080000000065220008A524000838
:100040001B0100081B0100081B0100081B01000820
:100050001B0100081B010008190900081B0100080A
:100060001B0100081B0100081B0100081B01000800
:100070001B0100081B0100081B0100081B010008F0
:100080001B0100081B0100081B0100081B010008E0
:100090001B0100081B0100081B0100081B010008D0
:1000A0001B010008352500081B0100081B01000882
:1000B0001B0100081B0100081B0100081B010008B0
:1000C0001B0100081B0100081B0100081B010008A0
:1000D0001B0100081B0100081B0100081B01000890
:1000E0001B0100081B0100081B010008DFF80CD0F1
:1000F00000F048FB00480047DD3D00089006002066
:100100000648804706480047FEE7FEE7FEE7FEE7B1
:10011000FEE7FEE7FEE7FEE7FEE7FEE7092500084B
:10012000ED000008202A04DB203A21FA02F0002129
:10013000704721FA02F3D040C2F1200291400843F7
:1001400019467047D2B201E000F8012B491EFBD2DC
:1001500070470022F6E710B513460A4604461946D2
:10016000FFF7F0FF204610BD30B480EA010202F034
:10017000004530F0004221F0004013D090B1C30D93
:10018000D40DC2F31601C0F31600E41A41F40001C5
:1001900040F400027D34914201D3641C00E0490028
:1001A000002C02DA30BC002070474FF4000000231E
:1001B000914201D3891A034340084FEA4101F7D124
:1001C00051B1914202D14FF0004105E002D24FF00F
:1001D000010101E06FF0010103EBC450284430BC81
:1001E00000F00CBA2DE9FE4F804681EA0300C00FF3
:1001F0000C46009021F0004123F00045B8EB0200CE
:10020000A94105D24046214690461C460B4602466F
:1002100023F00040104347D0270DC7F30A00C3F373
:100220000A510290401A019040286BDAC3F3130080
:1002300040F4801B0098924620B10023D2EB030AC1
:1002400063EB0B0B01985946C0F14002504600F099
:10025000B4F906460D4650465946019A00F0BCF9DD
:1002600010EB08006141002487EA115284EAE77329
:100270001A4340D0009A62B3019A012A4FEA07520A
:1002800015DC001B61EB02014FF0004202EA07524D
:10029000CDE90042001C41F5801132462B4600F0AA
:1002A000F3F903B0BDE8F08F40462146F9E7001BA3
:1002B00061EB0201001C41F5801300185B4120181E
:1002C000A2F5001747EB030140EAD570B6196D415E
:1002D00011E06D084FEA360645EAC0754FEA07524D
:1002E000001B61EB0201001C41F5801149084FEA37
:1002F00030000019514132462B4603B0BDE8F04FA3
:1003000000F0B3B90098012240000023D0EB0202B4
:1003100063EBE073009821464FEAE074B8EB00000D
:1003200061EB0401E9E783F000435BE781F0004102
:1003300058E72DE9FE4F81EA030404F0004421F060
:10034000004100944FF0000B23F0004350EA0104F9
:100350005ED052EA03045BD0C3F30A54C1F30A55DA
:100360002C44A4F2F3340194A0FB0254C1F3130112
:1003700041F48011C3F3130343F4801301FB0244DF
:1003800000FB034E840A970A44EA815447EA8357E4
:10039000A4FB076802958D0A05FB07854FEA932C9D
:1003A00004FB0C542705029D4FEA065847EA16370E
:1003B000B5EB08056EEB070C870E920E47EA811726
:1003C00042EA8312A7FB0201B6EB0B0164EB0004C7
:1003D0002B0D43EA0C335E1844EB1C50DA465146B1
:1003E000E7FB0201C5F313044FEA0B3343EA14534E
:1003F0004FEA0432019C43EA0603A4F10C04029480
:10040000009CCDE900B400F03FF903B0BDE8F08FE7
:1004100000200146F9E72DE9F04D81EA030404F0DC
:10042000004B21F0004514464FF0000A23F0004134
:1004300050EA050220D054EA01021DD0C5F30A5744
:100440000246C5F31303C1F31300C1F30A5640F487
:10045000801543F48013A7EB0608101BD64608F25C
:10046000FD3873EB050002D308F1010801E0921892
:100470005B41B8F1000F03DA00200146BDE8F08DC2
:1004800000204FF48011064684460EE0171B73EBE4
:10049000050705D3121B63EB050306434CEA010C69
:1004A00049084FEA300092185B4150EA0107EDD14C
:1004B00052EA030012D082EA040083EA05010843ED
:1004C00005D0101BAB4106D20122002306E000221A
:1004D0004FF0004302E06FF0010253101AEB0600E8
:1004E0004CEB085110EB0A0041EB0B01BDE8F04D5D
:1004F00000F0BBB8C10F80EAE0700844CA07962339
:10050000002100F084B800F0004230F000400AD032
:10051000C10D01F56071C0F3160042EA0151C20835
:1005200040071143704700200146704730B50B4625
:10053000014600202022012409E021FA02F59D4213
:1005400005D303FA02F5491B04FA02F52844151EE7
:10055000A2F10102F1DC30BD2DE9F05F054600207B
:1005600092469B4688460646814640241BE0284624
:10057000414647462246FFF7D5FD53465A46C01A24
:10058000914110D311461846224600F016F82D1A54
:1005900067EB01084F4622460120002100F00DF8CC
:1005A00017EB00094E41201EA4F10104DFDC484690
:1005B00031462A464346BDE8F09F202A04DB203A14
:1005C00000FA02F1002070479140C2F1200320FAA6
:1005D00003F3194390407047202A06DBCB17203ADB
:1005E00041FA02F043EAE07306E041FA02F3D04038
:1005F000C2F1200291400843194670470029A8BF64
:100600007047401C490008BF20F00100704710B43B
:10061000B0FA80FC00FA0CF050EA010404BF10BCF0
:10062000704749B1CCF1200421FA04F411FA0CF11D
:1006300018BF012121430843A3EB0C01CB1D4FEA56
:1006400000614FEA102042BF002010BC704700EB51
:10065000C35010440029A4BF10BC7047401C49007F
:1006600008BF20F0010010BC704710B5141E73F1D4
:10067000000408DA401C41F1000192185B411A4362
:1006800001D120F0010010BD2DE9F04D92469B46AE
:1006900011B1B1FA81F202E0B0FA80F22032904654
:1006A000FFF78BFF04460F4640EA0A0041EA0B01C0
:1006B00053465A46084313D0114653EA010019D055
:1006C000C8F140025046FFF72DFD05460E46504644
:1006D00059464246FFF771FF084305D0012004E068
:1006E00020463946BDE8F08D0020054346EAE07615
:1006F0002C4337430A986305E40AA0EB0800002264
:10070000FD0A44EA47540A3002D500200146E9E7D1
:10071000010510196941DDE9084500196941BDE885
:10072000F04DA2E7C1F30A52C1F3130140F2FF33C7
:1007300041F480119A4202DA00200146704740F2EB
:1007400033439A42A2F2334202DC5242FFF7EABC40
:10075000FFF733BF30B5041E71F1000404DB4FF026
:100760000044404264EB0101141E73F1000405DBF8
:100770001C464FF00043524263EB0403994208BF0A
:10078000904230BD064C074D06E0E06840F00103A2
:1007900094E8070098471034AC42F6D3FFF7AAFC60
:1007A000244600084446000870B51F4C1F4800222C
:1007B00061884171090A81712178817050214172EB
:1007C00001460C2003F095FA00210C2003F0A2FA58
:1007D000002003F0F1F900210F2003F0BFF800061C
:1007E000F9D5802200210F2003F055FA03F0E3FA37
:1007F000C4E9040100200E4905460D54401C7F2821
:10080000FBDB082002F0C6FF4DF6A86003F0A2F95A
:10081000002003F0EFF82078401CC0B22070FF28C1
:1008200000D1257070BD0000180000205401002088
:10083000B201002010B503F01DFB01F08BFB17A0E7
:1008400002F00AF8012003F007F8012802D118A0ED
:1008500002F002F81CA001F0FFFF01F09FFB1E4810
:1008600002F062FD012003F00EF91B4802F051FD79
:100870004FF2F20003F063F9052003F0E2F848F2CA
:10088000840003F061F9002003F090F9012113487E
:1008900003F0E1F8BDE8104002F06ABF68656C6CD7
:1008A0006F2064776D31303030210D0A0000000078
:1008B00064776D3130303020696E6974206661690B
:1008C0006C210D0A00000000696E6974207061736C
:1008D00073210D0A000000000400002000D0032452
:1008E0000A4861210A4B017088214170F221C170D0
:1008F000F0210171002181701F221A600522C2714E
:100900000172012141718171704700005401002082
:1009100000000020FEE77047012000F017B872B613
:10092000FEE7000070B5044600F01AF90546601CA9
:1009300002D004480078044400F012F9401BA042A1
:10094000FAD370BD4000002001F066BE044910B526
:100950000A68024202D00860FFF7F6FF10BD0000EF
:10096000140401402DE9F84FDFF8B891002409F193
:10097000040A0AF1040B23460F270BF1040EC9E009
:100980000125A5402A40AA427DD1674ED1F804C076
:10099000ACEB0608B44532D014DCBCF1030F3AD0FE
:1009A00009DCBCF1000F2AD0BCF1010F1CD0BCF156
:1009B000020F31D11DE0BCF1110F17D0BCF1120FA5
:1009C0002AD119E0B8F5881F19D006DCB8F5803FA8
:1009D00015D0B8F5801F1FD111E0B8F5001F0ED05B
:1009E000B8F5041F18D10AE0CB6815E0CB681B1DD1
:1009F00012E0CB6808330FE0CB680C330CE08B6857
:100A00002BB1012B4FF0080303D0456104E0042310
:100A100002E0056100E00023FF2A01D8064601E05C
:100A200000F104064FEA840501D9A5F12005D6F8A6
:100A3000008007FA05FC28EA0C0803FA05F548EAE5
:100A40000508C6F800804D68ED0062D5374DAE69E7
:100A500046F00106AE61AD6924F0030605F001051C
:100A60000095334D06EB050CDCF80850A607360F51
:100A700007FA06F825EA0805DFF8B880404503D1F3
:100A80004FF0000817E044E0DFF8AC80404502D1A9
:100A90004FF001080FE0DFF8A480404502D14FF08D
:100AA000020808E0DFF89880404502D14FF00308C3
:100AB00001E04FF0040808FA06F848EA0508CCF807
:100AC00008804D68D9F80060ED034D4601D5164306
:100AD00000E096432E604D68DAF80060AD0355469D
:100AE00001D5164300E096432E604D68DBF80060A8
:100AF000ED025D4601D5164300E096432E604D6839
:100B0000DEF80060AD02754601D5164300E096435D
:100B10002E60641C0D682A46E5407FF431AFBDE8C5
:100B2000F88F000000040140000011100010024086
:100B30000000014000080140000C0140001001408D
:100B400000140140C26821EA02030A4043EA02415C
:100B5000016170470AB1016170470904FBE70000B9
:100B6000014880687047000040000020024881680A
:100B7000027811448160704740000020074810B59A
:100B8000016841F010010160032000F075F80F20AA
:100B900000F006F800F024F8002010BD002002400C
:100BA00070B50D4D04464FF47A712878B1FBF0F022
:100BB0000A490968B1FBF0F000F0D3FD48B9102CE8
:100BC00007D200222146501E00F036F800206C604B
:100BD00070BD012070BD0000400000204C000020CE
:100BE0000C4808B5816941F001018161816901F01A
:100BF00001010091C16941F08051C161C06900F0FB
:100C0000805000900448416821F0E06141F080612B
:100C1000416008BD0010024000000140002809DBCF
:100C200000F01F02012191404009800000F1E02006
:100C3000C0F8001170470000F0B40E4B1B680C4662
:100C4000C3F30223C3F10705042D00D90425191DA0
:100C5000072901D2002300E0DB1E012606FA05F178
:100C6000491E214099409E40761E16403143F0BCFB
:100C700001F016BE0CED00E0064900F0070208681E
:100C80004FF6FF03184040EA0220034A1043086071
:100C9000704700000CED00E00000FA052DE9F04778
:100CA0000F46050061D0434E306800F00700B8429F
:100CB00009D2306820F0070038433060306800F017
:100CC0000700B84251D128683B4C810712D5400734
:100CD00003D5606840F4E06060602878000703D5C1
:100CE000606840F4605060606068A96820F0F000BF
:100CF000084360602878C00728D06868012810D0B1
:100D00002168022810D0890700292EDA616821F0B5
:100D1000030101436160FFF723FF804641F28839F8
:100D20000DE021688903EFE78901EDE7FFF718FF80
:100D3000A0EB0801494502D90320BDE8F0876068AF
:100D4000696800F00C00B0EB810FEFD1306800F063
:100D50000700B8420BD9306820F0070038433060F4
:100D6000306800F00700B84201D00120E5E728789C
:100D7000400705D56068E96820F4E06008436060DA
:100D80002878000706D56068296920F4605040EA99
:100D9000C100606000F038F86168084AC1F30311CF
:100DA000515CC8400649086006480068FFF7F8FE35
:100DB0000020C2E700200240001002406C3F000803
:100DC0004C000020440000200448054900684968A0
:100DD000044AC1F30221515CC84070474C00002016
:100DE000001002407C3F000804480549006849683B
:100DF000044AC1F3C221515CC84070474C00002036
:100E0000001002407C3F000813A185B00FC98DE897
:100E10000F0015A0154A00680490516801F00C00FD
:100E2000042804D0082804D0114805B070471148A0
:100E3000FBE7C1F38343C9031DF8030009D55168DB
:100E400004AAC1F34041515C0A4A5043B0FBF1F09F
:100E5000EBE709494843E8E70203040506070809E8
:100E60000A0B0C0D0E0F10100102000000100240C2
:100E700000127A000024F40000093D002DE9F84F2B
:100E8000040070D02078C04DC00749D06868C0F316
:100E90008100012807D06868C0F38100022809D1C9
:100EA0006868C00306D52868800339D560680028C3
:100EB000E7D035E06068B0F5803F0BD010B1B0F5F9
:100EC000A02F11D0286820F480302860286820F4F2
:100ED000802002E0286840F480302860606890B18B
:100EE000FFF73EFE06460AE0286840F480202860AE
:100EF000F0E700BFFFF734FE801B642873D8286832
:100F00008003F7D50CE0FFF72BFE064605E000BF97
:100F1000FFF726FE801B6428F0D828688003F7D4EA
:100F200020789A4E80074FF001094FF0000839D51C
:100F3000686810F00C0F07D06868C0F381000228C1
:100F400009D16868C00306D42868800714D52069D1
:100F5000012808D110E02069B0B1C6F80090FFF771
:100F6000FFFD074605E00AE1FFF7FAFDC01B022876
:100F7000C4D828688007F7D52868616920F0F80090
:100F800040EAC10028600DE0C6F80080FFF7E8FDE8
:100F9000074604E0FFF7E4FDC01B022823D82868B9
:100FA0008007F7D4207800072CD57948A169D9B1FA
:100FB000C0F80090FFF7D4FD074604E0FFF7D0FD2E
:100FC000C01B02280FD8686A8007F7D571484FF414
:100FD000FA510068B0FBF1F0009000BF0098411E8C
:100FE0000091FAD20EE080E0C0F80080FFF7B8FD73
:100FF000074604E0FFF7B4FDC01B022875D8686AF5
:101000008007F7D42078400760D5E8690027C00042
:1010100008D4E86940F08050E861E869012700F0F1
:10102000805000905C480168C90513D4016883466C
:1010300041F480710160FFF793FD824606E000BF36
:10104000FFF78EFDA0EB0A0064284ED8DBF8000005
:10105000C005F5D5E06801280AD008B1052813D0ED
:10106000286A20F001002862286A20F0040002E0CB
:10107000286A40F001002862E06841F2883B98B19C
:10108000FFF76EFD82460BE0286A40F004002862FC
:10109000EEE700BFFFF764FDA0EB0A0159455AD8FF
:1010A000286A8007F6D50CE0FFF75AFD824605E076
:1010B000FFF756FDA0EB0A0159454CD8286A800776
:1010C000F6D41FB1E86920F08050E861E06988B388
:1010D0006968C1F38101022944D00228C6F8608002
:1010E00004D0FFF73DFD044638E034E0FFF738FD5B
:1010F000074604E0FFF734FDC01B02282BD8286800
:101100008001F7D4206AB0F5803F05D16868A168F6
:1011100020F4003008436860D4E908010843696896
:1011200021F4741108436860C6F86090FFF718FD59
:10113000044606E025E000BFFFF712FD001B022871
:1011400009D828688001F7D51BE000BFFFF708FD2C
:10115000001B022802D90320BDE8F88F286880010F
:10116000F4D40EE00128F7D06868226A00F48031D8
:10117000914204D1616A00F47010884201D00120CC
:10118000EAE70020E8E700000010024000004242C9
:10119000800442424C0000200070004070B5040002
:1011A00009D0606A002540B125616561A56294F8A7
:1011B000510040B10CE0012070BD6068B0F5827F45
:1011C000F4D0E561F2E784F85050204600F040F892
:1011D000022084F851002068016821F0400101607C
:1011E000A088218900F4827001F404410843A18998
:1011F00001F400610843217C01F002010843217DD4
:1012000001F001010843218B01F400710843217FA3
:1012100001F03801084394F8201001F080010843E0
:10122000218D01F40051084321680860A069042160
:1012300001EA1040216848602068C16921F400611A
:10124000C1616565012084F85100002070BD000077
:1012500030B585B000240094019402940394006892
:101260001449884223D11448816941F48051816135
:10127000816901F480510491816941F00401816127
:1012800080690E4D00F004000490A0200090022020
:1012900001900320039069462846FFF763FB402036
:1012A000CDE90004694628460294FFF75BFB05B0D0
:1012B00030BD000000300140001002400008014035
:1012C0002DE9F84F044640680025984616460F461B
:1012D0004FF0040BB0F5827F01D1A06888B194F87B
:1012E0005000012818D0012084F85000FFF738FC86
:1012F000814694F851004FF0000A01280ED00225D3
:1013000082E084F851B013460A462046CDF80080AA
:1013100000F036F9BDE8F88F0220FBE7002F72D00D
:10132000002E70D084F851B0C4F854A0A763A687EB
:10133000E687C4F830A0A4F834A0A4F836A0C4F816
:1013400040A0C4F844A0A068B0F5004F09D12068BF
:10135000016821F0400101602068016821F48041AA
:10136000016020680168490603D4016841F040012A
:101370000160E068D8B139E020688168C90709D008
:10138000007BA16B0870A06B401CA063E08F401E27
:10139000E0870CE0FFF7E4FBA0EB0901414503D334
:1013A000B8F1FF3F03D036E0B8F1000F33D0E08F43
:1013B0000028E1D11DE020688168C90709D0C06814
:1013C000A16B0880A06B801CA063E08F401EE087AB
:1013D0000CE0FFF7C5FBA0EB0901414503D3B8F1D1
:1013E000FF3F03D017E0B8F1000F14D0E08F0028C2
:1013F000E1D14A464146204600F035FF08B12020A1
:101400006065606D00B10125012084F8510084F809
:1014100050A028467EE70325F6E72DE9F84F04465D
:1014200090F8500000271D461646894601280DD029
:101430004FF0010B84F850B0FFF792FB804694F810
:101440005100BA46012804D0022793E00220BDE8EB
:10145000F88FB9F1000F73D0002E71D0032084F8FB
:101460005100C4F854A0C4F83090A686E686C4F8AB
:1014700038A0A4F83CA0A4F83EA0C4F844A0C4F846
:1014800040A0A068B0F5004F09D12068016821F0A4
:10149000400101602068016841F4804101602068DA
:1014A0000168490603D4016841F040010160E06829
:1014B000B0F5006F606803D030B3012E24D041E056
:1014C00008B1012E1CD1206B21680088C86006E09D
:1014D00020688168890709D5216B0988C160206B64
:1014E000801C2063E08E401EE08609E0FFF738FB99
:1014F000A0EB0800A84202D3681C01D031E07DB304
:10150000E08E0028E4D120E0206B21680078087389
:1015100006E020688168890709D5216B0978017385
:10152000206B401C2063E08E401EE0860AE0FFF73F
:1015300017FBA0EB0800A84203D3681C02D010E000
:1015400017E06DB1E08E0028E3D1424629462046DF
:1015500000F0B7FE08B120206065A06818B106E071
:10156000FFE7032706E02068C16880680090606D8F
:1015700000B1012784F851B084F850A0384666E7DE
:101580002DE9F84F044690F8500000270A9E1D46AA
:1015900092468B464FF0010901280ED0012084F8B5
:1015A0005000FFF7DDFA804694F851006168012889
:1015B0000CD0B1F5827F07D102E00220BDE8F88FA0
:1015C000A16809B9042801D00227C2E0BBF1000FCD
:1015D00027D0BAF1000F24D01DB394F8510004288D
:1015E00002D0052084F8510000206065C4F838A0BE
:1015F000E587A587C4F830B0E586A58620646064D9
:1016000020680168490603D4016841F04001016087
:10161000E068B0F5006F606805D0E8B3012D46D0F2
:101620007FE0012795E008B1012D39D1206B2168B9
:101630000088C860206B801C2063E08E401EE0861E
:101640002EE02068816889070FD5E18E69B1B9F174
:10165000010F0AD1216B0988C160206B801C2063B7
:10166000E08E401EE0864FF0000920688168C907BF
:101670000CD0E18F51B1C068A16B0880A06B801CB9
:10168000A063E08F401EE0874FF00109FFF768FA82
:10169000A0EB0800B04200E009E001D3701C50D17B
:1016A000E08E0028CDD1E08F0028CAD13FE0206B2A
:1016B000216800780873206B401C2063E08E401E78
:1016C000E0862EE02068816889070FD5E18E69B138
:1016D000B9F1010F0AD1216B09780173206B401C0D
:1016E0002063E08E401EE0864FF00009206881688C
:1016F000C9070CD0E18F51B1C068A16B0870A06B15
:10170000401CA063E08F401EE0874FF00109FFF707
:1017100027FAA0EB0800B04202D3701C01D010E001
:101720007EB1E08E0028CDD1E08F0028CAD142469C
:101730003146204600F0C5FD28B101272020606514
:1017400007E0032705E0A06818B92068C168806831
:101750000090012084F85100002084F850003846A1
:101760002CE710B5401EB0F1807F01D3012010BDE1
:101770004FF0E02460610F21601701F091F8002024
:10178000A06107202061002010BD70477047000055
:1017900070B590F83C20012A26D0012480F83C4006
:1017A000022280F83D2003685A689D6822F0700686
:1017B0000A6832435A600D4B02689A4208D0B2F16F
:1017C000804F05D00A4B9A4202D00A4B9A4204D16C
:1017D000496825F080031943916080F83D4000215D
:1017E00080F83C10084670BD022070BD002C0140FE
:1017F000000400400008004010B5040003D094F835
:101800003D0010B107E0012010BD002084F83C002D
:10181000204600F01FF8022084F83D00211D2068BA
:1018200000F08EFE012084F8460084F83E0084F823
:101830003F0084F8400084F8410084F8420084F8B6
:10184000430084F8440084F8450084F83D000020FB
:1018500010BD000008B500680B49884212D10B4842
:10186000816941F4006181618069002200F40060B7
:10187000009011461920FFF7DFF9BDE80840192054
:10188000FFF7CCB908BD0000002C01400010024059
:1018900090F83D10012901D001207047022180F805
:1018A0003D1000680B49884208D0B0F1804F05D048
:1018B0000949884202D00949884204D1816801F06F
:1018C0000701062903D0016841F0010101600020F1
:1018D00070470000002C0140000400400008004058
:1018E00090F83D10012901D001207047022180F8B5
:1018F0003D100168CA6842F00102CA6000680B49E5
:10190000884208D0B0F1804F05D00949884202D002
:101910000849884204D1816801F00701062903D0F3
:10192000016841F00101016000207047002C014076
:10193000000400400008004001680A6A41F21113E7
:101940001A4207D10A6A9B101A4203D10A6822F090
:1019500001020A60012180F83D100020704770B537
:10196000044690F83C00012817D0012584F83C502B
:10197000022084F83D002068826822F0770222F479
:101980007F4282600868502830D00DDC20284DD07E
:1019900005DC98B310283BD148E0022070BD302808
:1019A00044D0402834D139E0602828D0702806D0AF
:1019B000B0F5805F2CD0B0F5005F29D10AE0CB688C
:1019C000D1E90121206800F0F1FD2068816841F033
:1019D000770109E0CB68D1E90121206800F0E6FD3C
:1019E0002068816841F48041816011E0CA684968DB
:1019F000206800F0EDFD5021206807E016E0CA687D
:101A00004968206800F0F5FD6021206800F0D8FDED
:101A100084F83D50002084F83C0070BDCA684968D5
:101A2000206800F0D5FD40212068EFE722680146DC
:101A30001046EBE7704770B50446006801694FF047
:101A40000005C943890715D4C168C943890711D462
:101A5000E91E016101202077206880698007204607
:101A600002D0FFF7E7FF04E000F098F8204600F00E
:101A700096F8257720680169C943490717D4C168DA
:101A8000C943490713D46FF0040101610220207794
:101A90002068806910F4407F204602D0FFF7CAFF1B
:101AA00004E000F07BF8204600F079F82577206804
:101AB0000169C943090716D4C168C943090712D48B
:101AC0006FF008010161042020772068C069800759
:101AD000204602D0FFF7AEFF04E000F05FF820469A
:101AE00000F05DF8257720680169C943C90617D45D
:101AF000C168C943C90613D46FF010010161082001
:101B000020772068C06910F4407F204602D0FFF79C
:101B100091FF04E000F042F8204600F040F82577FD
:101B200020680169C943C90708D1C168C943C90709
:101B300004D1891E0161204600F032F82068016955
:101B4000C943090609D4C168C943090605D46FF021
:101B5000800101612046FFF718FE20680169C94332
:101B6000490609D4C168C943490605D46FF040014C
:101B70000161204600F046F820680169C9438906E2
:101B80000BD4C168C943890607D46FF020010161F5
:101B90002046BDE87040FFF7F9BD70BD7047704743
:101BA00070B500681349884223D11348FFF7C4FE7B
:101BB000124C104D60682C3560B10F48FFF7BCFE29
:101BC00040F69C70286000206060BDE870400A48C4
:101BD000FFF75EBE01F010FE00F098FC608801285F
:101BE00003D1C1030648FEF7ADFF40F6055028605B
:101BF000EBE770BD002C0140C80000201800002059
:101C000000100140704770B5040004D094F83D0006
:101C1000002510B106E0012070BD84F83C5020463C
:101C200000F022F8242084F83D002068C16821F4E7
:101C30000051C160204600F07FFD2068016921F459
:101C4000904101612068416921F02A0141612068C9
:101C5000C16841F40051C1602564202084F83D0032
:101C600084F83E00002070BD30B585B0002400949B
:101C700001940294039400681449884224D11448C2
:101C8000816941F480418161816901F4804104915D
:101C9000816941F00401816180690E4D00F004000A
:101CA00004904FF4007000900220019003200390F4
:101CB00069462846FEF756FE2815CDE90004694618
:101CC00028460294FEF74EFE05B030BD00380140B4
:101CD00000100240000801402DE9F843044690F846
:101CE0003D001F4616460D4620284CD1C5B1BEB159
:101CF00094F83C00012846D0012084F83C004FF0C5
:101D00000008C4F84080212084F83D00FEF728FF39
:101D1000A6848146E684A068B0F5805F03D004E025
:101D20000120BDE8F883206928B12E465FF0000548
:101D300084F83C800EE00026FAE78021204600F07F
:101D400057FDA0B9AEB116F8010B21684860E08CD0
:101D5000401EE084E08C4B464FF0000200970028C4
:101D6000EBD14FF04001204600F042FD30B103209E
:101D7000D7E735F8020BC0F30800E6E7202084F827
:101D80003D000020CDE70220CBE7FEE77FB5002035
:101D9000224C00900190029003902068204D002872
:101DA00011DDFEF7A7FB2946FEF7DEF9FEF7ABFBD8
:101DB00002460B461BA1684600F05EFD6A46022102
:101DC000002000F0F3F96068002811DDFEF792FBB7
:101DD0002946FEF7C9F9FEF796FB02460B4616A107
:101DE000684600F049FD6A460421002000F0DEF953
:101DF000A068002811DDFEF77DFB2946FEF7B4F947
:101E0000FEF781FB02460B4610A1684600F034FD48
:101E10006A460621002000F0C9F97FBD3402002087
:101E20000000C842616E313A25332E32666D2020A3
:101E30002020202000000000616E323A25332E322F
:101E4000666D20202020202000000000616E333AC3
:101E500025332E32666D2020202020200000000037
:101E60002DE9F04786B0002435480094019402948F
:101E70000394816941F010018161816901F01001D1
:101E80000491816941F020018161816901F02001A3
:101E90000491816941F004018161816901F00401CB
:101EA0000491816941F0080181618069012200F09B
:101EB0000800DFF89080D503049029464046FEF7DD
:101EC00049FEDFF88490002210214846FEF742FECA
:101ED000DFF878A04FF21047002239465046FEF74F
:101EE00039FE0095022601250396CDE90154694685
:101EF0004046FEF737FD1020CDE90005CDE902464A
:101F000069464846FEF72EFD11480095CDE90104CB
:101F100069465046FEF726FD00970396CDE9015429
:101F200069465046FEF71EFD002211460620FEF7C8
:101F300083FE0620FEF772FE06B0BDE8F0870000C3
:101F4000001002400010014000080140000C014058
:101F500000001110104810B50E4901604FF4827155
:101F6000416000218160C1604FF400720161C0E9ED
:101F700005123822C0E90721416281620A21C1624B
:101F8000FFF70CF9002803D0BDE81040FEF7C7BCEE
:101F900010BD000000300140700000200F4810B557
:101FA0000D4901604FF48271416000218160C16080
:101FB0004FF400720161C0E905121022C0E9072147
:101FC000416281620A21C162FFF7E8F8BDE8104072
:101FD0004FF4FA70FEF7A6BC0030014070000020FC
:101FE00010B586B00024174800940194029403941D
:101FF0000494134905940160C821C0E9011442F218
:102000000F71C0E9031444618461FFF7F5FB08B167
:10201000FEF785FC4FF48050009069460948FFF7B1
:102020009EFC08B1FEF77BFC049404A905480594C6
:10203000FFF7AEFB002801D0FEF771FC06B010BD23
:10204000002C0140C80000200C4810B50A4901606E
:102050004FF4E1314160002181600C22C160C0E990
:1020600004128161C161FFF7CEFD002803D0BDE8F5
:102070001040FEF754BC10BD003801401001002094
:10208000FEE7FEE770B5002404F1B000C0B2002105
:1020900000F0A6F80021084600F0A2F80021102068
:1020A00000F09EF800250121002000F099F86D1C39
:1020B000EDB2872DF7D3641CE4B2082CE4D370BDD5
:1020C00070B50122134D940321462846FEF742FDC8
:1020D000642001F019F9002221462846FEF73AFD56
:1020E000C82001F011F9012221462846FEF732FDF1
:1020F000094D00240021285D00F072F8641CE4B250
:102100001B2CF7D3FFF7BEFFBDE870400021AF20C6
:1021100000F066B8000C01405000002010B50446E5
:10212000B031C8B2002100F05BF8102040EA141072
:10213000002100F055F804F00F00BDE8104040F019
:102140000100002100F04CB82DE9F041203A0024B4
:102150000D46D7B27F2802D900208D1CEDB2801C1D
:10216000C0B280462946FFF7D9FF0F4E04EB071097
:102170000121305C00F034F8641CE4B2082CF5D383
:102180006D1CE9B24046FFF7C9FF002404EB0710BD
:1021900030440121007A00F023F8641CE4B2082CDA
:1021A000F4D3BDE8F0810000324000082DE9F04191
:1021B00017460E46044600250CE031462046FFF740
:1021C000C3FF0834E4B2782C02D90024B61CF6B25E
:1021D0006D1CEDB27A5D002AEFD1BDE8F081000000
:1021E0002DE9F0471E4D06464FF4806A09B10122E1
:1021F00000E0002251462846FEF7ACFC4FF4805820
:10220000002241462846FEF7A5FC00244FF4004971
:102210004FF40057002239462846FEF79BFC300653
:1022200001D5012200E0002249462846FEF792FC33
:10223000012239462846FEF78DFC7006641C060E06
:10224000E4B2082CE6D3012241462846FEF782FC80
:1022500051462846BDE8F0470122FEF77BBC00004E
:10226000000C01407047F8B5044640684FF4827393
:10227000984217D1A0684FF48065B0F5004F01D0A7
:10228000A8420FD12068066826F040060660606804
:10229000984207D1A068A84204D100920B460022C0
:1022A000012103E000920B4600228021204600F02D
:1022B00019F8002804D0606D40F02000606503200C
:1022C000F8BD38B50B46009204460022802100F08C
:1022D00009F8002804D0606D40F0200060650320FC
:1022E00038BD00002DE9F8431E4691468846044655
:1022F000089DFEF735FC401B351AFEF731FC0746FA
:1023000025480068C0F3CB30684338E0701C37D0F4
:10231000FEF726FCC01BA84203D215B1009860B39B
:102320002CE02068416821F0E00141606068B0F570
:10233000827F0BD1A068B0F5004F02D0B0F5806F5E
:1023400004D12068016821F040010160A06AB0F565
:10235000005F09D12068016821F400510160206804
:10236000016841F400510160012084F8510000200F
:1023700084F850000320BDE8F8830025401E00903B
:102380002068816838EA010004D000214945BDD1A8
:102390000020F0E70121F9E74C0000207047000021
:1023A00070B53D4801213D4C41710021817121787A
:1023B00081704D21417238496D20374A88727221EF
:1023C000D172114602200873052048732089887352
:1023D000000AC87332494FF6FF730868002801DD10
:1023E000024600E01A462C4D2A7401DD024600E048
:1023F0001A46294D4FEA12226A744A68002A01DD02
:10240000154600E01D46244EB57400DC1A46224EE7
:102410004FEA12224FF00A05F2748968002901DDA3
:102420000A4600E01A461C4E327500DC19461A4A6C
:102430004FEA1121002851754FF00D0201DD0146D0
:1024400000E01946144EB17500DD034612494FEA0B
:102450001320C8750846057642764FF000024FF00B
:102460001C0001F046FC00211C2001F053FC002060
:1024700001F0A2FB00210F2001F070FA0006F9D54F
:10248000802200210F2001F006FCA068401CA06003
:10249000BDE87040FFF77ABC54010020180000200E
:1024A00034020020FEF762BB10B590B028216846C8
:1024B000FDF74FFE14210AA8FDF74BFE0121080489
:1024C000CDE900104200029202240491CDE90740B8
:1024D0004FF4E01009906846FEF7D0FC08B172B6E0
:1024E000FEE70F20CDE90A0400204FF48061CDE91A
:1024F0000C010E9002210AA8FEF7D0FB002801D0A3
:1025000072B6FEE710B010BD7047000010B5084C61
:10251000608850B1FEF748F96088401C80B2608046
:10252000042801D10020608010BDFFF739FFF3E7D8
:10253000180000200148FFF77EBA0000C800002004
:10254000F0B50268164B174C174D4FF08047984274
:1025500005D0B84203D0A04201D0A84203D122F056
:1025600070064A683243984205D0B84203D0A04270
:1025700001D0A84203D122F44074CA6822434C69B6
:1025800022F08002224302608A68C2620A68826284
:10259000984201D10969016301214161F0BD000048
:1025A000002C0140000400400008004010B5846881
:1025B00042EA032224F47F440A432243826010BD8E
:1025C000826822F070020A4342F00701816070477E
:1025D00010B5036A046A24F001040462846924F0DB
:1025E000F00444EA021423F00A020A4384610262FE
:1025F00010BD10B5036A23F0100303628369046AF7
:1026000023F4704343EA023224F0A00343EA0111A9
:102610008261016210BD000070B500203F4E01468E
:102620003154401C7F28FBD3002001F0B3F8002177
:102630000F2001F093F93A4C410462D5002110209B
:1026400001F08CF9C0F3090136487F29018063D875
:102650000022324801F0B5F9334DE660F079687137
:10266000307AA871B078A870707A412854D101F0FE
:102670008FFBC4E9060101F0B3F92C494618304636
:1026800001F0E4F926F00100010E0002C4E908019E
:1026900046206872D4E9042305F10B0001F060FBC9
:1026A000D4E9062305F10F0001F05AFBD4E9082311
:1026B00005F1130001F054FB00222946192001F016
:1026C00018FB0021192001F025FB012001F074FA0C
:1026D000E068C17A807A00EBC00202EB001001EBE7
:1026E00080016879AA79401E40EA0220104A42F827
:1026F000201000210F2001F031F90006F9D58022C9
:1027000004E0800301D4012060600A4ABDE8704003
:1027100000210F2001F0BFBA70BD0000B2010020FF
:10272000180000201000002054010020005906006D
:102730003402002000D0272470B5044600680169E7
:10274000E26821F44051114301612169A068084306
:10275000616908432168CA6841F20C639A430243E5
:10276000CA6020684169A26921F440711143416146
:102770001E492068884202D1FEF736FB01E0FEF7D1
:1027800023FB00EBC00101EB0012606864218000B4
:10279000B2FBF0F3B3FBF1F36FF018067343B2FB37
:1027A000F0F5B2FBF0F605EB8305322303EB0515DC
:1027B000B5FBF1F5B6FBF1F605F0F00505EB0615F6
:1027C000B2FBF0F6B2FBF0F0B0FBF1F06FF01802E4
:1027D000504306EB800003EB0010B0FBF1F02168E2
:1027E00000F00F002844886070BD000000380140F0
:1027F0002DE9F041984617460E460446069D1DE019
:10280000681C1BD02DB1FEF7ABF9A0EB0800A84265
:1028100014D92068C16821F4D071C1602068416971
:1028200021F001014161202084F83D0084F83E0040
:10283000002084F83C000320BDE8F0812068006897
:1028400036EA000004D00020B842D9D00020F3E7D7
:102850000120F9E7FEE700000FB4054B10B503A90E
:10286000044A029800F0B4F910BC5DF814FB0000B3
:10287000793D00086C0000200FB4084B10B504A986
:1028800002AA039800F0A4F9044602A9002000F06F
:1028900036FD204610BC5DF814FB0000FF32000836
:1028A0000907090E002804DB00F1E02080F800147D
:1028B000704700F00F0000F1E02080F8141D704711
:1028C00002E008C8121F08C1002AFAD170477047F9
:1028D000002001E001C1121F002AFBD1704738B56A
:1028E00004466D208DF800006B46012240F606017B
:1028F0002E2001F0DFF941F6060114B140F2076223
:1029000001E041F207622E2001F0B8F938BD38B578
:1029100004466B4602220021362001F035F80E2CC9
:102920002CD2DFE804F00F07152B2B2B2B1D392B96
:102930002B44494E00208DF800009DF8010000F066
:10294000FE0019E09DF8000000F0FC00401C04E0CF
:102950009DF8000000F0FC00801C8DF800000DE0E8
:102960009DF8000000F0B30040F048008DF8000032
:102970009DF8010040F080008DF801006B460122B7
:102980000021362001F096F90122114636200DF182
:10299000010301F08FF938BD9DF8000000F0B3008D
:1029A0008DF800009DF8010000F07F00E4E79DF83D
:1029B000010040F00200DFE79DF8010000F0FD009B
:1029C000DAE79DF8000000F0CF0040F02000C4E7F7
:1029D00008B503208DF8010001208DF800006B463A
:1029E00002220021362001F065F94FF40042062151
:1029F0002D2001F043F9012000F086FC0120FFF7B3
:102A000086FF08BD08B5010A8DF801108DF8000099
:102A10006B46022204212D2001F04CF903208DF891
:102A200000006B46012206212D2001F043F9002011
:102A30008DF800006B46012206212D2001F03AF9A5
:102A40000A212D2000F08AFF08BD00002DE9FF5F5C
:102A500082B00021DDE90430020DDDF840B003430F
:102A600018D044F61050A2F2FF32424315141198C8
:102A700001281FD0A5EB0B00401C5FEA000A4FF0B5
:102A800000064E4FDFF83891B046504615D5CAF1D2
:102A9000000413E0119801244AA3012801D16FEA30
:102AA0000B010298119AC0E90031C0E9024206B058
:102AB000BDE8F09FCBF10000DFE704460021404A6B
:102AC000491842EB0450CDE9001012E0E00707D0AE
:102AD00032463B4640464946FDF72BFC8046894638
:102AE00032463B4610461946FDF723FC06460F4684
:102AF0006410002CEAD1DDE90401DDE90023BAF11C
:102B0000000F06DAFDF715FC42464B46FDF711FCB7
:102B100005E0FDF780FC42464B46FDF77CFC044691
:102B20000E460022284BFDF715FE03D84FF0FF306C
:102B3000014607E00022254B20463146FDF752FBB7
:102B4000FDF7F0FD102409E0002C0ADB0A22002327
:102B5000FDF702FD039B30321A55641E50EA010254
:102B6000F2D1641C039AC4F111031444119A012A8E
:102B700003D0012208430DD10AE0084304D000200D
:102B80004FF0110B119072E7A3EB0B056D1E0DE0DA
:102B90005B4504DD4FF0000205F1010504E003DAB6
:102BA0004FF00002A5F10105002AECD0029811991E
:102BB000C0E90231C0E9004579E700000000144097
:102BC0000000F03F300000000000F0430000E03F54
:102BD0002DE9FF4F95B09B468946064600250FE23A
:102BE000252877D100242746F84A0121059400E0E2
:102BF000044316F8013F203B01FA03F01042F7D1DD
:102C000030782A2811D06FF02F033078A0F13002ED
:102C1000092A16D8059A44F0020402EB820203EB5B
:102C200042021044761C0590EFE759F8042B0592F8
:102C3000002A03DA504244F40054059044F00204A0
:102C4000761C30782E2816D116F8010F44F00404B3
:102C50002A280DD06FF02F023078A0F13003092B15
:102C600009D807EB870302EB4303C718761CF3E789
:102C700059F8047B761C30786C280FD006DC4C2881
:102C800017D068280DD06A2814D104E0742810D019
:102C90007A280FD10DE044F400140AE044F48014C3
:102CA00001E044F440147278824202D104F58014A9
:102CB000761C761C307866280BD013DC582877D029
:102CC00009DC002875D04528F6D04628F4D04728DE
:102CD0001AD19DE118E0632835D0642879D06528A1
:102CE00012D195E1702873D008DC6728F1D06928EB
:102CF0006FD06E280DD06F2806D1B5E073282CD088
:102D0000752875D0782874D05A46179990476D1C4D
:102D100075E1C4F30250022809D003280DD0D9F878
:102D2000001004280DD00D6009F1040967E1D9F8FD
:102D30000010EA17C1E90052F6E7D9F800100D803B
:102D4000F2E70D70F0E719F8041B8DF80010002071
:102D50008DF80100EA46012003E059F804AB4FF07A
:102D6000FF3061074FF0000102D40DE008F10101CE
:102D70008846B9420FDA8045F8DB1AF808100029B6
:102D8000F4D108E008F1010188468142FADB1AF823
:102D900008100029F6D105985B46A0EB08072146EC
:102DA0003846179A00F094FA284400EB080507E02B
:102DB0004DE029E10DE01AF8010B5A4617999047AA
:102DC000B8F10108F7D25B4621463846179A13E15D
:102DD00042E00A220092C4F302524FF0000A022A93
:102DE00008D059F804CB032A4FEAEC710AD00DE061
:102DF00029E02AE009F1070121F00702F2E802C107
:102E0000914609E00FFA8CFC4FEAEC71042A03D1D9
:102E10004FFA8CFC4FEAEC71002907DA0A460021D0
:102E2000DCF1000C61EB02012D2202E0220504D549
:102E30002B228DF80420012203E0E20701D020229A
:102E4000F7E7904659E00A2102E010220DE0102138
:102E50004FF0000A00910BE010224FF0000A44F0FE
:102E600004040827009203E008224FF0000A0092B1
:102E7000C4F30252022A05D059F804CB0021032AD8
:102E800008D009E009F1070121F00702F2E802C1C8
:102E9000914605E01FFA8CFC042A01D10CF0FF0CCE
:102EA0004FF00008220728D5702806D0009B83F039
:102EB000100353EA0A0305D00EE040228DF80420E7
:102EC000012208E05CEA010206D030228DF80420DD
:102ED0008DF8050002229046009B83F0080353EA18
:102EE0000A030AD15CEA010201D1620705D530224A
:102EF0008DF804204FF001087F1E582804D034A01C
:102F000003900EA802900DE036A0F9E75346604604
:102F1000009AFDF721FB84460398825C0298401ECC
:102F2000029002705CEA0100F0D1029806A9081A2A
:102F300000F1200A600702D524F4803400E0012764
:102F4000574502DDA7EB0A0000E0002000EB0A0174
:102F5000009005984144401A0590E00306D45B4672
:102F60002146179A059800F0B3F90544002706E0BA
:102F700001A85A46C05D179990476D1C7F1C4745B4
:102F8000F6DBE0030CD55B462146179A059800F066
:102F90009FF9054404E030205A46179990476D1C6C
:102FA0000099481E00900029F5DC08E0029802997B
:102FB0005A460078491C0291179990476D1CBAF146
:102FC0000001AAF1010AF1DC65E100000928010015
:102FD000303132333435363738396162636465668F
:102FE0000000000030313233343536373839414251
:102FF000434445460000000000F058F90544761CA3
:10300000307800287FF4ECAD19B02846BDE8F08F89
:10301000620700D4062709F1070222F0070CFCE83A
:103020000223E14603F000485FEA080C02D00FF2E9
:10303000702C0DE05FEA045C02D50FF2682C07E00B
:103040005FEAC47C02D00FF2602C01E0AFF2700C9A
:103050004FF0FF3823F00043CDF850C065280CD066
:1030600006DC452809D046281DD047283DD13DE043
:10307000662818D067287ED138E00021112F01DBA7
:10308000112000E0781CCDE9000106A90EA8FFF789
:10309000DDFCDDE90F010E9A03910021009207F19A
:1030A000010A04914DE04FF000400097CDE9011076
:1030B00006A90EA8FFF7CAFCDDE90F0203920E9BDA
:1030C00011990022DDF80CA00093049211B9791C2B
:1030D00000EB010AB7EB0A0004D4C0F1FF3007F19E
:1030E000010A0490AAEB0700019044E0012F00DAE6
:1030F00001270021112F01DD112000E03846CDE924
:10310000000106A90EA8FFF7A1FCDDE90F010E9A48
:103110000391002104910092BA4621070CD403992F
:10312000514500DA8A46BAF1010F05DD009AAAF18D
:103130000101515C302908D0B84202DA10F1040FC5
:1031400006DA0121CDE9011015E0AAF10101E9E754
:10315000002805DC049901440491AAEB000102E077
:10316000411C514500DD8A460499401A401C0190DB
:103170004FF000400290200704D40198504501DB35
:10318000CDF8048000208DF84F0002980DF14F0714
:10319000B0F1004F25D02B200E9002984FF002087E
:1031A00000280CDA404202902D200E9007E00A2100
:1031B0000298FDF7BBF93031029007F8011DB8F114
:1031C0000001A8F10108F2DC02980028EFD1791E75
:1031D0000E980870307800F0200040F0450007F8A5
:1031E000020D12A8C01B00F107081498007800B166
:1031F000012000EB0A01019801EBE07105984144C0
:10320000401A401E0590E00306D45B462146179AFB
:10321000059800F05DF805441498007818B15A46F6
:10322000179990476D1CE00324D55B462146179AF9
:10323000059800F04DF805441CE00498002807DBD1
:10324000DDE90301884203DD0098405C179901E045
:10325000179930205A469047049805F10105401C03
:1032600004900198401E019004D12E205A461799CF
:1032700090476D1CBAF10001AAF1010ADDDC05E0FE
:1032800017F8010B5A46179990476D1CB8F10001C9
:10329000A8F10108F4DC5B462146179A0598ABE6D5
:1032A0002D0000002B000000200000002DE9F0415F
:1032B000044600251E461746880404D405E0394616
:1032C0002020B0476D1C641EF9D52846BDE8F0816A
:1032D0002DE9F041044600251E469046C80301D55D
:1032E000302700E02027880404D505E04146384611
:1032F000B0476D1C641EF9D52846BDE8F0810A6808
:10330000531C0B6010707047FDF70CBB704700201A
:1033100070471CB5C2208DF800004FF01F3001909F
:10332000684600F00DF91CBD2DE9F84F04460578FC
:10333000407978494FF00009C84631F8107061783B
:103340007548491ECEB20163042D75D0072D73D088
:1033500000218A46217801736F49E2798969002A40
:103360006CD021F480018161217A4173217A4FF47C
:103370004033826903EA01410A43834682610021A6
:10338000042000F088FC3A4642F604012E2000F0AA
:1033900075FC3046FFF7A3FA604F61490522785D5E
:1033A00000EB8000431807212B2000F083FC5D49CF
:1033B000012201EB0A030B21282000F07BFC785D41
:1033C000594951F820200C21282000F064FCE079B4
:1033D000564901EB8000A17930F811200221272005
:1033E00000F04CFC5248042130F81620272000F051
:1033F00045FCE07938B3A07804282AD028208DF83D
:10340000000020220621272000F038FC6B46012214
:103410002621272000F04EFC4648E17800EB0610FC
:1034200050F821200821272000F035FCB4F80900CD
:10343000A0B117E000E001E001218AE741F480013A
:10344000FF08816190E764220621272000F016FC26
:10345000E2E710208DF800000246D3E741F2410078
:10346000A4F80900B4F809202021272000F006FC68
:10347000314F0C2123203A6800F00DFC07EB460089
:1034800004218288232000F0F9FBA07958B1E0796B
:103490002A49012243180021212000F00BFC4FF0A3
:1034A00003094FF0010805F00F00290740EA1160F9
:1034B00061784FF4402202EA81410843920002EA17
:1034C000095108434FF4003202EA48410843217988
:1034D0004FF0F86202EA81510843617940EAC16223
:1034E00000211F2000F0D7FBA07861784FF4004343
:1034F00008430204CBF81020E179082043EA413167
:103500000A430021CBF8102000F0C5FB0020BDE8E5
:10351000F88F00000040000850020020843F00089F
:10352000A43F0008C23F00088C3F0008D03F0008BD
:10353000DC3F0008E03F0008C43F0008CC3F000823
:1035400010B50446034601220B212A2000F0B2FBED
:1035500062680021BDE810401E2000F09CBB000006
:1035600010B5A0B0642104A8FCF7F3FD0024A0B2BC
:103570001DAB0522002100F007FA9DF877009DF8A9
:1035800074309DF875209DF876108DE80F009DF839
:103590007830224668A104A8FFF76EF904A8FFF767
:1035A0005BF9641C3F2CE2DB00242146202000F064
:1035B000D5F900902346202267A104A8FFF75CF903
:1035C00004A8FFF749F9241D202CEEDD0024214634
:1035D000212000F0C3F90090234621225EA104A817
:1035E000FFF74AF904A8FFF737F9241D2C2CEEDD6C
:1035F00000242146232000F0B1F900902346232225
:1036000055A104A8FFF738F904A8FFF725F9241DF0
:10361000202CEEDD00242146242000F09FF90090AC
:10362000234624224CA104A8FFF726F904A8FFF79B
:1036300013F9241D0C2CEEDD00242146272000F078
:103640008DF900902346272243A104A8FFF714F91F
:1036500004A8FFF701F9241D2C2CEEDD00242146DF
:10366000282000F07BF90090234628223AA104A8E4
:10367000FFF702F904A8FFF7EFF8241D402CEEDD58
:10368000002421462A2000F069F9009023462A22CE
:1036900031A104A8FFF7F0F804A8FFF7DDF8241D16
:1036A000142CEEDB002421462B2000F057F900906B
:1036B00023462B2228A104A8FFF7DEF804A8FFF771
:1036C000CBF8241D182CEEDB002421462F2000F01F
:1036D00045F9009023462F221FA104A8FFF7CCF83C
:1036E00004A8FFF7B9F8241D282CEEDB002421469E
:1036F000312000F033F900902346312216A104A8AE
:10370000FFF7BAF804A8FFF7A7F8241D542CEEDB46
:1037100000242146362000F021F90090234636226D
:103720000DA104A8FFF7A8F804A8FFF795F8241D39
:10373000302CEEDD20B010BD7265675B253032584D
:103740005D3D2530325825303258253032582530ED
:103750003258253032580A007265675B253032587E
:103760003A253032585D3D253038580A00000000B7
:1037700010B50021262000F0F1F840F4A822002125
:10378000262000F088FA00222621BDE810403620CD
:1037900000F074BA10B504460021042000F0DEF8F1
:1037A0000A4908403CB120F4FF7004F4FF71014362
:1037B00041F0010201E020F0010205480021826190
:1037C000BDE81040042000F066BA0000FFFF47F09B
:1037D0005002002010B504460421362000F0BEF847
:1037E00014B140F4006201E020F400620421BDE85D
:1037F0001040362000F04FBA38B540208DF8000058
:1038000000210E2000F0AAF80446FFF780FD0546CF
:10381000002211460E2000F03EFA6B4601220021E4
:103820000D2000F047FA0A4A00210F2000F033FA79
:1038300000F00AFA224600210E2000F02CFA284659
:10384000FFF764FD0349002081F82C0038BD00001B
:10385000F8FF2724500200202DE9FC410746344C94
:1038600004208DF8000000256575256384F8255037
:1038700084F82C50A5836563A56300F081F82D4979
:103880002060884202D00120BDE8FC810020FFF7C3
:103890003EF86B4601220021242000F00BFA1E2086
:1038A000FFF7B0F886B2300AA0730420FFF7AAF839
:1038B00010F0FF0F0CD002208DF8040001AB0122A4
:1038C00012212D2000F0F6F9A08B40F48050A08347
:1038D0000620FFF797F860600720FFF793F8A060D5
:1038E00016F01F00207501D110202075284625757F
:1038F00000F01EFAF80706D0FFF76AF8A08B40F434
:103900000060A08309E00521362000F015F820F4BE
:1039100000720521362000F0B1F90120FEF7F7FF13
:103920000021042000F01AF8A0610020ACE700009C
:10393000500200203001CADE38B5012489B280B2BD
:103940006B46022200F020F830B99DF800009DF887
:10395000011000EB012084B2204638BD38B50124A7
:1039600089B280B26B46042200F00EF830B9032110
:103970006846425C491E02EB0424FAD5204638BD55
:1039800000210846FFF7EABF08B551B140F04000FA
:103990008DF80000C8B27F2907D88DF801000220F9
:1039A0000BE08DF80000012007E040F080008DF86A
:1039B0000100C8098DF802000320694600F02EFAC4
:1039C00008BD30B414460A462146034630BC1120D7
:1039D000FFF7DABF0346052200211520FFF7D4BF09
:1039E00001210620FFF7BABF034605220021172058
:1039F000FFF7CABF38B5054600208DF8000000F07B
:103A000023F94FF4807422460DB14FF44072002127
:103A10000D2000F033F995B16B46012203210F20F0
:103A2000FFF7B2FF9DF80000000708D5FFF7E4FE9E
:103A3000224600210D2000F021F9012038BD002090
:103A400038BD02460021032000F018B902460121CA
:103A50000A2000F020B970B50E460446FFF757FC67
:103A6000054600210E20FFF779FF0EB1204300E04C
:103A7000A043024600210E2000F00DF92846BDE8C3
:103A80007040FFF743BC38B50446C0076B464FF0A3
:103A900002024FF000014FF026002DD0FFF774FF17
:103AA0009DF80100012220F03C0040F014008DF848
:103AB0000100114626200DF1010300F0FBF86B46D2
:103AC000012202213620FFF75FFF9DF800006B46C0
:103AD00040F084008DF8000001220221362000F021
:103AE000E9F810208DF8000001208DF80100022275
:103AF00028216B4636200BE0FFF746FF9DF80100BA
:103B00006B4620F014008DF80100022200212620CF
:103B100000F0D0F8A00711D50F208DF800006B46FB
:103B200001222A21362000F0C5F800208DF800007F
:103B30006B4601222A21362000F0BCF838BD02462F
:103B40000221032000F09AB8024641F604012E201B
:103B500000F094B838B505466B46012203210420D5
:103B6000FFF712FF104C75B12A4600210C2000F01F
:103B700085F89DF8000040F010008DF80000A06965
:103B800040F0805008E09DF8000020F010008DF813
:103B90000000A06920F08050A0616B460122032143
:103BA000042000F087F838BD5002002002460021B2
:103BB000182000F063B80000F8B500240546214F36
:103BC00026468DF8004080070BD580208DF8000038
:103BD0006B46012200210D2000F06CF8012087F8CF
:103BE0002C00E8079DF8000020D040F006008DF87A
:103BF00000006B46012200210D2000F05BF803213C
:103C00000F20FFF799FE10F4816F19D040208DF836
:103C100000006B46012200210D2000F04BF800202F
:103C2000FFF7D8FD87F82C60012409E040F002007E
:103C30008DF800006B46012200210D2000F03AF8BB
:103C40002046F8BD500200201CB56B46012203211E
:103C50000F20FFF799FE9DF8000000F0800100F0B2
:103C60004000B1EB400F08D001208DF8040002465F
:103C700001AB03210D2000F01DF81CBD08B589B271
:103C80008DF80020120A8DF8012080B26B460222C6
:103C900000F010F808BD38B500236C46E254120A53
:103CA0005B1C042BFADB89B280B22346042200F0AD
:103CB00001F838BD08B551B140F0C0008DF80000E2
:103CC000C8B27F2909D88DF8010002200DE040F02C
:103CD00080008DF80000012007E040F080008DF8A2
:103CE0000100C8098DF802000320694600F012F9AE
:103CF00008BD10B514460244B2F5806F01D9012009
:103D000010BD0B46821E21460920FFF7D3FF00207D
:103D100010BD0000054A10B5126940EA8150024307
:103D200000210820FFF7B7FF002010BD500200203F
:103D300038B504466B4601220E212B20FFF724FEE6
:103D40009DF8000004F01F0120F01F0001438DF8D2
:103D500000106B4601220E212B20FFF7ABFF38BD70
:103D600010B500214254120A42EA03621B0A491CA0
:103D70000429F7DB10BD000013B54FF6FF730122D5
:103D800069460248FDF7A8FF00981CBD10010020FD
:103D90007CB5002425466846FFF71CFE04206946D2
:103DA0002D0245EA146522020C5C1443401EF7D52F
:103DB000204629467CBD7CB5002425466846FFF791
:103DC00013FE042069462D0245EA146522020C5CAC
:103DD0001443401EF7D5204629467CBDFCF7CEFE95
:103DE000FEF762FBFEF73CF8FEF7B4F8FEF7F8F8D2
:103DF000FEF72AF90848416821F0E0614160FFF7C9
:103E0000AFFBFCF76DFDFCF715FDFEF759F900BFA0
:103E100000F04CF8FCE70000000001402DE9F047FD
:103E20009A46154689468046FFF771FA0F4E0446BA
:103E3000002210213046FCF78DFE4FF47A773B4686
:103E4000424649460A48FDF7E8FAAAB23B465146BF
:103E50000748FDF735FA012210213046FCF77AFEBB
:103E60002046FFF753FA0020BDE8F0870008014024
:103E70007000002010B50C4C012210212046FCF7E8
:103E800069FE1420FCF74EFD002210212046FCF7AD
:103E900061FE1420FCF746FD20460122BDE81040DB
:103EA0001021FCF757BE0000000C014000210CA2BD
:103EB0000846FEF77BF90EA11048FEF7DDFC0F4A1D
:103EC00002210020FEF772F90DA206210020FEF764
:103ED0006DF9FEF785F80E48FDF702FDFEE70000DC
:103EE0002020203531555742204E6F646500000078
:103EF000202020205478204E6F646500400200206E
:103F000020207777772E35317577622E636E00002B
:103F1000C80000202DE9F0479A461546894680469C
:103F2000FFF7F5F90F4E0446002210213046FCF74A
:103F300011FE4FF0FF373B46424649460A48FDF71F
:103F40006CFAAAB23B4651460748FDF766FA0122D1
:103F500010213046FCF7FEFD2046FFF7D7F9002080
:103F6000BDE8F0870008014070000020000000005C
:103F70000000000001020304060708090000000019
:103F8000010203040000010203040005405C00007C
:103F9000A05C0400C06C0800805C0400E03F1E00D0
:103FA000E07D1E00070400091E08054008260910D0
:103FB00040085608054008261D040008BE1D0400E0
:103FC00008BED8BC07A9022570889B88401008004D
:103FD0000A001600010006000100020087008D00A3
:103FE0002D001A3152001A339A001A351D011A3762
:103FF0006B003B31BE003B335E013B3596023B37E5
:10400000000099599959EB518F421E45142E00809A
:10401000EB51F5283333E13A703DE13AC235852B57
:10402000C2353333C235C235AE47E13A5138A330D9
:1040300051380000000000000000000000000000F7
:104040000000000000F80000000000000033300015
:10405000000000100C06100C06000000000000001C
:10406000000040C07840C0784000043F04043F0492
:104070000400007088FC08300000001820FF211E9A
:104080000000F008F000E018000000211C031E21D1
:104090001E0000F00888700000001E21232419274C
:1040A000211010160E0000000000000000000000AB
:1040B0000000000000E018040200000000071820C3
:1040C000400000020418E000000000402018070033
:1040D0000000404080F0804040000202010F0102D9
:1040E0000200000000F0000000000101011F0101BA
:1040F0000100000000000000000080B0700000001F
:1041000000000000000000000000000101010101AA
:10411000010100000000000000000030300000003D
:104120000000000000008060180400601806010014
:10413000000000E010080810E000000F1020201020
:104140000F00001010F8000000000020203F202089
:104150000000007008080888700000302824222120
:1041600030000030088888483000001820202011D6
:104170000E000000C02010F8000000070424243FB7
:10418000240000F808888808080000192120201160
:104190000E0000E0108888180000000F1120201188
:1041A0000E0000380808C83808000000003F000072
:1041B00000000070880808887000001C222121225D
:1041C0001C0000E010080810E0000000312222115D
:1041D0000F00000000C0C0000000000000303000F0
:1041E000000000000080000000000000806000006F
:1041F00000000000804020100800000102040810A8
:1042000020004040404040404000040404040404B6
:104210000400000810204080000000201008040264
:104220000100007048080808F00000000030360166
:104230000000C030C828E810E00007182724231425
:104240000B000000C038E0000000203C23020227E1
:10425000382008F8888888700000203F202020112E
:104260000E00C03008080808380007182020201069
:10427000080008F808080810E000203F202020105F
:104280000F0008F88888E8081000203F202023202D
:10429000180008F88888E8081000203F2000030074
:1042A0000000C03008080838000007182020221E2F
:1042B000020008F808000008F808203F2101012149
:1042C0003F20000808F8080800000020203F2020B8
:1042D000000000000808F8080800C08080807F0007
:1042E000000008F888C028180800203F2001263860
:1042F000200008F8080000000000203F20202020B7
:10430000300008F8F800F8F80800203F003F003FB0
:10431000200008F830C00008F808203F20000718E7
:104320003F00E01008080810E0000F1020202010C7
:104330000F0008F808080808F000203F21010101DB
:104340000000E01008080810E0000F18242438507E
:104350004F0008F8888888887000203F2000030CF0
:1043600030200070880808083800003820212122F9
:104370001C00180808F8080818000000203F20005A
:10438000000008F808000008F808001F202020207E
:104390001F000878880000C83808000007380E01A0
:1043A0000000F80800F80008F800033C0700073C8C
:1043B0000300081868808068180820302C03032C3C
:1043C00030200838C800C83808000000203F20000E
:1043D000000010080808C8380800203826212020CE
:1043E0001800000000FE020202000000007F4040B2
:1043F0004000000C30C00000000000000001063842
:10440000C00000020202FE000000004040407F00A9
:10441000000000000402020204000000000000008E
:10442000000000000000000000008080808080808C
:104430008080000202040000000000000000000074
:1044400000000000808080800000001924222222C9
:104450003F2008F8008080000000003F112020115C
:104460000E000000008080800000000E112020203F
:104470001100000000808088F800000E112020103C
:104480003F200000808080800000001F2222222226
:104490001300008080F0888888180020203F2020AA
:1044A00000000000808080808000006B94949493D2
:1044B000600008F8008080800000203F210000207C
:1044C0003F2000809898000000000020203F20201E
:1044D0000000000000809898000000C08080807F6D
:1044E000000008F8000080808000203F24022D306A
:1044F0002000000808F8000000000020203F2020D5
:1045000000008080808080808000203F20003F204D
:10451000003F8080008080800000203F210000203C
:104520003F200000808080800000001F202020208D
:104530001F00808000808000000080FFA1202011EB
:104540000E000000008080808000000E112020A05E
:10455000FF80808080008080800020203F2120001C
:104560000100000080808080800000332424242407
:104570001900008080E0808000000000001F2020E3
:1045800000008080000000808000001F202020109C
:104590003F20808080000080808000010E3008066F
:1045A000010080800080008080800F300C030C3080
:1045B0000F0000808000808080000020312E0E31AE
:1045C0002000808080000080808080818E701806AE
:1045D000010000808080808080000021302C22211A
:1045E000300000000000807C020200000000003F5C
:1045F000404000000000FF00000000000000FF003D
:1046000000000002027C800000000040403F0000EB
:104610000000000601010202040400000000000086
:104620000000000044460008000000207000000068
:10463000C0280008B44600087000002020060000D2
:10464000D028000800000000020208020909010049
:104650000021040000000000000000000000010034
:10466000000000000000000000000000000000004A
:10467000000000000000000000000000000000003A
:104680000000000001000000100000000000000019
:104690000024F400AE00104081CFA1C8A6A83FD3EB
:1046A00000D580D9F1DA12DB4020028D14A4A600D7
:0446B0000000000006
:04000005080000ED02
:00000001FF
